:020000040800F2
:1000000000000220511C0008710900087309000853
:100010007509000877090008790900080000000048
:100020000000000000000000000000007B09000844
:100030007D090008000000007F0900088109000810
:10004000A11C0008A11C0008A11C0008A11C00089C
:10005000A11C0008A11C0008A11C0008A11C00088C
:10006000A11C0008A11C0008A11C0008A11C00087C
:10007000A11C0008A11C0008A11C0008A11C00086C
:10008000A11C0008A11C0008A11C0008A11C00085C
:10009000A11C0008A11C0008A11C0008A11C00084C
:1000A000A11C0008A11C0008A11C0008A11C00083C
:1000B000A11C0008A11C0008A11C0008A11C00082C
:1000C000A11C0008A11C0008A11C0008A11C00081C
:1000D000A11C0008A11C0008A11C0008A11C00080C
:1000E000A11C0008A11C000800000000A11C0008C1
:1000F000A11C0008A11C0008A11C0008A11C0008EC
:10010000A11C0008A11C0008A11C0008A11C0008DB
:10011000A11C0008A11C0008A11C0008A11C0008CB
:10012000A11C0008A11C0008A11C0008A11C0008BB
:10013000A11C0008A11C0008A11C0008A11C0008AB
:1001400000000000000000000000000000000000AF
:10015000A11C0008A11C0008A11C0008A11C00088B
:10016000A11C0008A11C0008A11C0008A11C00087B
:10017000A11C0008A11C0008A11C0008A11C00086B
:10018000A11C0008A11C0008A11C0008A11C00085B
:10019000A11C0008A11C0008A11C0008A11C00084B
:1001A000A11C0008A11C0008A11C0008A11C00083B
:1001B000A11C0008A11C0008A11C0008A11C00082B
:1001C000A11C0008A11C0008A11C0008A11C00081B
:1001D000A11C0008A11C0008A11C0008A11C00080B
:1001E000A11C0008A11C0008A11C0008A11C0008FB
:1001F000A11C0008A11C0008A11C0008A11C0008EB
:10020000A11C0008A11C0008A11C0008A11C0008DA
:10021000A11C0008A11C0008A11C0008A11C0008CA
:10022000A11C0008A11C0008A11C0008000000007F
:10023000A11C0008A11C000800000000A11C00086F
:10024000A11C0008A11C0008A11C0008A11C00089A
:10025000A11C0008A11C0008A11C0008A11C00088A
:10026000A11C0008A11C0008A11C0008A11C00087A
:10027000A11C0008A11C0008A11C0008000000002F
:10028000A11C0008A11C0008A11C0008000000001F
:1002900000000000A11C000810B5054C237833B9FC
:1002A000044B13B10448AFF300800123237010BD49
:1002B0003C04002000000000081E000808B5034BA5
:1002C0001BB103490348AFF3008008BD00000000E4
:1002D00040040020081E000880B59CB0BFF34F8F7B
:1002E000BFF36F8F684B0021C3F85012BFF34F8FDD
:1002F000BFF36F8F5A6942F400325A61BFF34F8FD8
:10030000BFF36F8FC3F88410BFF34F8FD3F88020F3
:1003100043F6E076C2F3C904C2F34E32A507520198
:1003200002EA060C284621464CEA0007013900F192
:100330004040C3F860724F1CF6D1203A12F1200FF2
:10034000EED1BFF34F8F5A6942F480325A61BFF346
:100350004F8FBFF36F8F00F079FB022000F016FD86
:1003600000230093494BDA6A22F00102DA62DB6A69
:1003700003F001030093464B9A6942F440429A61AC
:100380009A6902F440420092009A9A699404FCD55A
:100390004FF480334FF0010E0520A02102220424E7
:1003A00008251692189217941995CDE909E30023B0
:1003B000CDE9140109A80C9310931B931A93CDE96E
:1003C000122201F005F800B1FEE703234FF03F0CC5
:1003D0004FF480622146CDE901C34023CDE90305F6
:1003E00001A8CDE90533CDE9072301F00DFB00B1EC
:1003F000FEE700F0BBF900B1FEE7BFF34F8FBFF39C
:100400006F8F214B5A6922F400325A61C3F85002AF
:10041000BFF34F8FBFF36F8FC3F88400BFF34F8FCD
:100420005A6922F480325A61BFF34F8FD3F880208B
:1004300043F6E076C2F3C904C2F34E32A507520177
:1004400002EA060C284621464CEA0007013900F171
:100450004040C3F874724F1CF6D1203A12F1200FBD
:10046000EED1BFF34F8FBFF36F8F0A4B00221A609C
:10047000094B0A4A1B6813604FF01042126882F35E
:1004800008889847FEE700BF00ED00E00004005830
:100490000048025810E000E00400009058040020DA
:1004A0007B4B2DE9F04FD3F8D42091B0794D09243E
:1004B00042F480420026784F0BA9C3F8D420284686
:1004C000D3F8D4204FF040084FF00A0BDFF8D0A14A
:1004D00002F480424FF400790092009ADA6F42F4FD
:1004E0008042DA67DA6F22F48042DA67D3F8E020DC
:1004F00042F02002C3F8E020D3F8E02002F020020E
:100500000192019AD3F8E02042F00802C3F8E020FB
:10051000D3F8E02002F008020292029AD3F8E02019
:1005200042F02002C3F8E020D3F8E02002F02002DD
:100530000392039AD3F8E02042F02002C3F8E020AF
:10054000D3F8E02002F020020492049AD3F8E020CD
:1005500042F02002C3F8E020D3F8E02002F02002AD
:100560000592059AD3F8E02042F04002C3F8E0205B
:10057000D3F8E02002F040020692069AD3F8E02079
:1005800042F08002C3F8E020D3F8E02002F08002BD
:100590000792079AD3F8E02042F08002C3F8E020E7
:1005A000D3F8E02002F080020892089AD3F8E02005
:1005B00042F04002C3F8E020D3F8E02002F040020D
:1005C0000992099AD3F8E02042F04002C3F8E020F3
:1005D0004FF48062D3F8E03003F040030A930A9BA3
:1005E0000223CDE90B230323CDE90D630F9400F023
:1005F000DBFA01230BA93846CDF82C800D93CDF8FA
:100600003CB000F0D1FA4FF400630BA923480B93E0
:100610000D960F9400F0C8FA04230BA950460F94CE
:100620000B9300F0C1FA0BA92846CDF82C90CDF819
:100630003CB000F0B9FA08230BA950460F940B9375
:1006400000F0B2FA80230BA928460F940B9300F018
:10065000ABFA0BA93846CDF82C9000F0A5FA0BA9FF
:100660002846CDF82C8000F09FFA4FF480430BA968
:1006700038460B9300F098FA32460F215C2000F0C8
:100680003DFA5C2000F06CFA11B0BDE8F08F00BFBD
:10069000004402580014025800180258000C025876
:1006A000001C025800B54FF4407395B04FF04072F3
:1006B00011480C9305230F920222069300230B92FC
:1006C00006A913930093049303926A46CDE90D3370
:1006D000CDE91133102302934FF48003059340F2C8
:1006E0000113019341F2883300F0D9FD003018BFA7
:1006F000012015B05DF804FB5C04002000B54FF448
:10070000407395B041F2883217480C93062306A92E
:1007100006930023CDE90D330F930B931393CDE98B
:10072000113300F0BCFCE8B940F2022302224FF47E
:10073000800104900C48CDE900331023CDE902324A
:1007400005236A46CDE905134FF0407306A90F93C0
:1007500041F2883300F0A3FD003018BF012015B02E
:100760005DF804FB0120FAE75C0400202DE9F0436A
:100770007D4C9DB07D4B2046236000F074FC074605
:1007800008B10124ECE0FFF78BFE01250323C4E947
:1007900001351023E3604FF0006393FAA3F3B3FA3B
:1007A00083F34FF440762046E761013B2361402309
:1007B000C4E90567236200F0F7FB0028E1D14FF49C
:1007C00080774FF06609099041F2883205906946BA
:1007D0000D900697CDF80090CDE90700CDE90B000C
:1007E000204600F05CFC0028CBD14FF0990841F284
:1007F000883269462046CDF8008000F050FC002881
:10080000BFD141F28832694620460696CDF8009065
:1008100000F045FC0028B4D141F2883269462046F8
:10082000CDF8008000F03BFC0028AAD135231790BA
:10083000139041F288321B900EA914970E93CDE9C4
:100840001500CDE91900204600F029FC002898D1B8
:10085000FFF728FF002894D1B723149617900E9322
:1008600013901B90CDE91500CDE91900FFF746FF65
:10087000002886D141F288320EA9204600F00FFCF4
:1008800000287FF47EAFFFF70DFF00287FF479AFDB
:1008900085234FF440764FF04075ADF800000E937D
:1008A0000223139041F288320EA914961795CDE9D0
:1008B0001500CDE91830CDE91A002B4800F0EFFB08
:1008C00000287FF45EAF41F288326946264800F086
:1008D00085FC00287FF455AFFFF710FF0446002881
:1008E0007FF44FAF812341F288320EA91E480E9348
:1008F000BDF8003023F0F0031B051B0D43F400434B
:1009000043F08003ADF8003000F0C9FB00287FF40D
:1009100038AF41F288326946134800F003FC0028E2
:100920007FF42FAFED236A460EA90F480E934FF4C4
:1009300040631B9415934FF4405314961193052371
:10094000CDE9164513934FF000454FF08043CDE9B4
:100950000044CDE9195300F0F7FC002818BF01242A
:1009600020461DB0BDE8F0835C040020005000521A
:100970007047FEE7FEE7FEE7FEE770477047704707
:1009800000F092B81849194810B5D1F8883043F4EE
:100990007003C1F88830164B1A6842F001021A60E1
:1009A00000221A611C68204018609A61DA611A629C
:1009B0009A62DA621A635A639A63DA631A645A644F
:1009C000186820F4802018601A660A4B1B681B0CFC
:1009D0001B04B3F1005F02D2074B01221A604FF0F3
:1009E00000638B6010BD00BF00ED00E07FEDF6EA14
:1009F000004402580010005C08810051704700005C
:100A000038B50F4B0546187808B9012038BD4FF4AA
:100A10007A730C4AB3FBF0F31068B0FBF3F000F00C
:100A2000ADF804460028F0D10F2DEED80246294635
:100A30004FF0FF3000F062F8034B20461D60E5E701
:100A400008000020000000200C00002010B503204A
:100A500000F042F800F03CFF0F49104A8B69C3F3E5
:100A60000323D35C03F01F03D8400D4B18608B6940
:100A700003F00F03D35C03F01F03D840094B186049
:100A80000F20FFF7BDFF044618B9FFF7B7FF204658
:100A900010BD0124FBE700BF00440258201E0008DF
:100AA0000000002004000020034A044B11681B785A
:100AB0000B441360704700BFA8040020080000200A
:100AC000014B1868704700BFA8040020014B18684C
:100AD000000C70470010005C074A0002D36800F465
:100AE000E06023F4E0631B041B0C43F0BF6343F49A
:100AF00000330343D360704700ED00E0164B70B540
:100B0000DC684FF0FF36C4F30224C4F10705231D4F
:100B1000042D28BF0425062B06FA05F38CBF033CE1
:100B20000024002821EA030303FA04F306FA04F47C
:100B300022EA040443EA04034FEA0313DBB206DBB0
:100B400000F1604000F5614080F8003370BD00F0B6
:100B50000F00024A1354F9E700ED00E014ED00E045
:100B6000002808DB4209012300F01F0003FA00F00F
:100B7000014B43F82200704700E100E00138B0F17A
:100B8000807F0AD2064BF021064A5860002082F886
:100B90002310072298601A6070470120704700BF39
:100BA00010E000E000ED00E04FF0B04C00232DE934
:100BB000F74F724EE246DFF8D0B10A6832FA03F41A
:100BC00002D103B0BDE8F08F4FF0010E0EFA03FE24
:100BD0001EEA020200F0BD804C6824F01004022CD2
:100BE00014D14FEAD30803F007090F2500EB88085A
:100BF0004FEA8909D8F8204005FA09F524EA0505E5
:100C00000C6904FA09F42C43C8F820404FEA430861
:100C10004FF003094C6809FA08F9056804F0030469
:100C20006FEA090904FA08F409EA05052C4304608F
:100C30004D6825F01005013D012D11D88468CD685F
:100C400009EA040405FA08F525438560446824EAA6
:100C50000E0E4C68C4F300149C4044EA0E04446039
:100C6000C46809EA04098C6804FA08F444EA09042F
:100C7000C4604C68E4006CD5414D03F0030E4FF0A6
:100C80000F08D5F8F4404FEA8E0E44F00204C5F880
:100C9000F440D5F8F44023F0030505F1B04504F025
:100CA000020405F580650194019C08FA0EF4D5F85C
:100CB000089029EA0408334CA0424CD004F5806423
:100CC000A0424AD004F58064A04248D0584548D09C
:100CD00004F50064A04246D004F58064A04244D0EC
:100CE00004F58064A04242D004F58064A04240D064
:100CF00004F58064A0423ED004F58064A0420CBF9D
:100D000009240A2404FA0EF444EA0804AC60D5432A
:100D10004F683468FF034CBF14432C4034604F6865
:100D20007468BF034CBF14432C4074604F68DCF8F8
:100D30000040FF024CBF14432C40CAF800404F68EB
:100D4000DAF80440BF0254BF05EA04022243CCF89B
:100D50000420013331E70024D4E70124D2E7022440
:100D6000D0E70324CEE70424CCE70524CAE7062411
:100D7000C8E70724C6E70824C4E700BF800000587E
:100D80000044025800000258000C025838B5104CBC
:100D9000E36813F0040FE36805D103F00703181AA2
:100DA00018BF012038BD23F007031843E060FFF7A8
:100DB00087FE054663689B0401D50020F2E7FFF734
:100DC0007FFE401BB0F57A7FF4D90120EAE700BF2F
:100DD000004802584B6A2DE9F04733B1B2F1406F39
:100DE00003D08B6A0468013B23618B690C6A002B7A
:100DF00067D00568002C35D08B68EB61CC694B6AF5
:100E000005688F69D1F820C0D1F83480D1F810E09E
:100E10000E68D1E90BA9A4B144EA0A04144344EAD8
:100E2000090444EA08042343CC6843EA0E0343EA76
:100E30000C0323433B434C69334343EA84436B61D4
:100E40002AE04AEA0904144344EA0804234343EA33
:100E50000E0343EA0C033B4333434E6943EA8646A1
:100E60006E612CE04E69CC69D1F80090B604D1F8DF
:100E700024804F6BD1E90BECACB11C43CB6814431D
:100E800044EA090444EA080444EA0E0444EA0C046F
:100E90003C431C4334436C61B2F1406F0FD0036894
:100EA0004A689A610BE043EA0903134343EA0803E3
:100EB00043EA0E0343EA0C033B4333436B61BDE853
:100EC000F08744B303688C68DC61CC69D1F8248076
:100ED00005688E69D1F820C04B6BD1F810E0D1E9DC
:100EE0000B796CB13C43144344EA09042343CC68B6
:100EF00043EA080343EA0E0343EA0C0323439AE759
:100F000047EA09042243134343EA080343EA0E0372
:100F100043EA0C03A0E7CD694B6A7DB12B43CD6A50
:100F2000046813432B430D6B2B434D6B2B43CD6850
:100F30002B434D6943EA85436361ADE7002BBED087
:100F4000CC6A0068234313430A6B13434A6B134371
:100F50004A6943EA82434361B1E72DE9F041069DC6
:100F600004460F461646984621688A683A4214BFDE
:100F700001220022B24201D1002011E06B1CF4D00A
:100F8000FFF79EFDA0EB0800A84201D8002DEBD191
:100F90000423012084F84130636C43F0010363644F
:100FA000BDE8F0817047000037B50446FFF788FDC3
:100FB0000546002C4FD094F84030012B4DD0012332
:100FC00084F8403094F8412002F0FF033AB984F8E5
:100FD00040302046FFF7E6FF41F28833A3642068E3
:100FE000A1680268013922F4706242EA01222021DC
:100FF00002600022A36C204600932B46FFF7ADFF52
:1010000020BB2168E569E3680A682B43256A22F062
:101010007F422B43656822F0D00243EA0563134305
:101020000B602168D4E905324D681343226943EA15
:1010300002430B4A2A4013434B602268136843F073
:10104000010313600123606484F84130002384F8B5
:10105000403003B030BD0120FBE70220F9E700BFBC
:10106000FEF8E0FF704710B50446A0B190F840309C
:10107000012B12D00268012380F84030136823F05E
:1010800001031360FFF7EEFF0020606484F8410065
:1010900084F8400010BD0120FCE70220FAE72DE9AA
:1010A000F34704468A469146FFF70AFD94F840301C
:1010B0008046012B34D00123022784F8403094F875
:1010C0004160F6B29E4229D100220346CDF800903D
:1010D00020216264204684F84170FFF73EFF0546F8
:1010E000A8B9024651462046FFF774FEDAF82430CC
:1010F0005BB9CDF800904346324639462046FFF7AB
:101100002CFF054618B92368DF6084F8416000238E
:1011100084F84030284602B0BDE8F0873D46F6E747
:101120000225F7E72DE9F341044688461746FFF705
:10113000C7FC94F840300646012B4DD001232568AA
:1011400084F8403094F84100C0B2984242D1002364
:101150006364B8F1000F38D0122384F841302B6952
:101160000133E3622B69C4F824800133A3626B6905
:1011700023F040636B61E36A9BB900973346012219
:1011800002212046FFF7E9FE10B923680222DA6047
:10119000012384F84130002384F8403002B0BDE8D8
:1011A000F08100973346012204212046FFF7D5FE47
:1011B0000028EDD1636A1B7885F82030636A01331B
:1011C0006362E36A013BE362D5E7636C43F00803C3
:1011D0006364E0E70220DEE70220DFE72DE9F34168
:1011E000044617468846FFF76BFC25680646AA6941
:1011F00094F84030012B50D0012384F8403094F80B
:101200004100C0B2984246D100236364B8F1000F98
:101210003CD0222384F841302B690133A3632B692E
:10122000C4F83080013363636B6923F0406343F09B
:1012300080636B6123689A61A36B9BB90097334607
:10124000012202212046FFF788FE10B923680222FE
:10125000DA60012384F84130002384F8403002B082
:10126000BDE8F08100973346012206212046FFF7B2
:1012700074FE0028EDD195F82020236B1A70236BA3
:1012800001332363A36B013BA363D5E7636C43F096
:1012900008036364E0E70220DEE70220DFE72DE9D0
:1012A000F7430446984689461646FFF709FC94F82A
:1012B00040300746012B45D0012384F8403094F894
:1012C0004150EDB29D423BD142230022CDF8008037
:1012D0002021626484F8413003462046FFF73DFE3A
:1012E00040BB2368204632689A62236872685A625B
:1012F0002368B268DA62216833690A6843F48003BC
:1013000022F4400213434FF000620B604946F36839
:10131000C9F82830FFF75EFDCDF800803B462A462D
:1013200008212046FFF719FE20B923680822DA6059
:1013300084F84150002384F8403003B0BDE8F083C6
:101340000220F7E70220F8E7F7B5044617460E46F5
:10135000FFF7B6FB94F840200346012A36D001225D
:1013600084F8402094F84120012A2DD100228221C6
:101370002046626484F84110A16C00912021FFF79F
:10138000ECFD0546D0B922687968136823F008039C
:101390000B4313607B68082B0AD123683A681A63F1
:1013A00010222368DA602268136843F48013136004
:1013B0004FF0406231462046FFF70CFD002384F8D1
:1013C0004030284603B0F0BD0225F7E70225F8E7D4
:1013D000F8B5044608B9012090E00368DD075ED443
:1013E0002368980700F1AC802368DA0623D5AB4B5D
:1013F0001A69996A02F03802082A07D0182A40F0C0
:10140000008101F00302012A40F0FB801B68DB052C
:1014100002D5E369802BDED1FFF758FB41F20303CD
:101420009E4A9842216A00F2E580536823F0F8430F
:1014300043EA816353602368190700F11B81236825
:101440009A0600F1408123685D0722D5944D2B68F0
:1014500043F480732B60FFF733FB06462B68DA05F5
:1014600040F15681A2688D4B012A40F058811A6FD5
:1014700042F001021A67A368002B00F06781FFF7B2
:101480001FFB864D064641F288372B6F9B0740F1C4
:101490005681606A002840F0698100202EE07F4B71
:1014A0001A69996A02F03802102A05D0182A0AD15E
:1014B00001F00302022A06D11B68990390D56368E4
:1014C000002B8DD187E76268744BB2F5803F16D14F
:1014D0001A6842F480321A6063680BB3FFF7F0FABF
:1014E0006E4D064641F288372B689A033FF578AF78
:1014F000FFF7E6FA801BB842F6D90320F8BD3AB9E7
:101500001A6822F480321A601A6822F48022E2E714
:10151000B2F5A02F1A68F4D142F480221A60D7E7FE
:10152000FFF7CEFA5D4D064641F288372B689B03E4
:101530007FF556AFFFF7C4FA801BB842F6D9DCE757
:10154000564B1A69996A12F0380203D0182A1BD137
:101550008E0719D11B685D0703D5E368002B3FF4A4
:101560003AAFFFF7B3FA41F203034C4A98422169BC
:10157000536895BF23F47C3323F0FE4343EA0133E1
:1015800043EA016353602FE7444DE2682B680AB3D6
:1015900023F0190313432B60FFF792FA06462B68DA
:1015A000580711D5FFF792FA41F2030322699842D6
:1015B0006B6895BF23F47C3323F0FE4343EA023388
:1015C00043EA02636B600FE7FFF77AFA801B022899
:1015D000E5D992E723F001032B60FFF771FA064685
:1015E0002B6859077FF500AFFFF76AFA801B0228C6
:1015F000F6D982E7D36823F07C5343EA0163D360D2
:1016000019E7E369254D23B32B6843F080032B6072
:10161000FFF756FA06462B68DF050DD5FFF756FA99
:1016200041F20303226A98420CD86B6823F0F84316
:1016300043EA82636B60FEE6FFF742FA801B0228F2
:10164000E9D95AE7EB6823F07C5343EA0263EB6085
:10165000F1E62B6823F080032B60FFF731FA064692
:101660002B68D8057FF5E7AEFFF72AFA801B022822
:10167000F6D942E76369094DA3B16B6F43F00103EB
:101680006B67FFF71DFA06466B6F9B073FF5D7AEFA
:10169000FFF716FA801B0228F6D92EE700440258FD
:1016A000004802586B6F23F001036B67FFF708FADD
:1016B00006466B6F9F077FF5C2AEFFF701FA801BEE
:1016C0000228F6D919E7A369804D83B12B6843F44A
:1016D00080532B60FFF7F4F906462B6898043FF51A
:1016E000B2AEFFF7EDF9801B0228F6D905E72B68AB
:1016F00023F480532B60FFF7E3F906462B68990427
:101700007FF5A1AEFFF7DCF9801B0228F6D9F4E6DD
:10171000FFF7D6F9801B64287FF6A0AEEDE63AB954
:101720001A6F22F001021A671A6F22F00402A1E672
:10173000052A1A6FF5D142F004021A6797E6FFF7FF
:10174000BFF9801BB8427FF6A0AED6E6FFF7B8F926
:101750005E4D064641F288372B6F98077FF599AEAC
:10176000FFF7AEF9801BB842F6D9C6E6574D2B6994
:1017700003F03803182B7AD02B68022823F08073EB
:101780002B6067D1FFF79CF906462B6899015BD463
:10179000AB6AA26A23F47C7323F003031343E26A67
:1017A00043EA0213AB62636BA26B013B013A5B023B
:1017B00012049BB202F4FE021343226B013AC2F3FD
:1017C00008021343E26B013A120602F0FE42134391
:1017D0002B63EB6A23F00103EB626B6BA26C23F4C7
:1017E0007F4323F0F80343EAC2036B63EB6A226C86
:1017F00023F00C031343EB62EB6A626C23F00203E9
:10180000324C1343EB62EB6A43F48033EB62EB6AD6
:1018100043F40033EB62EB6A43F48023EB62EB6A40
:1018200043F00103EB622B6843F080732B60FFF7FA
:1018300047F9054623689A013FF52FAEFFF740F9B7
:10184000401B0228F6D958E6FFF73AF9801B022818
:101850009BD952E6FFF734F904462B689B017FF5CC
:101860001CAEFFF72DF9001B0228F6D945E601282A
:10187000AA6A2B6B3FF442AE02F00301A06A8142D8
:101880007FF4A9ADC2F30512E16A8A427FF4A3ADE9
:10189000226BC3F30801013A91427FF49CAD626B65
:1018A000C3F34621013A91427FF495ADA26BC3F395
:1018B0000641013A91427FF48EADE06BC3F30663BB
:1018C0000138181A18BF012018E600BF004402585A
:1018D000464B10B51A6902F03802102A00F08480D5
:1018E000182A0CD00AB1424810BD1A68414812F0BB
:1018F000200FF9D01B68C3F3C103D840F4E7996AFD
:10190000986ADA6AC0F305105C6B0028ECD007EE29
:10191000900A02F00102C4F3CC00B7EE006AF8EEC0
:10192000E76A424307EE902A01F00302012AFAEE29
:10193000E97A02D00FD3022A48D01B6BC3F3080305
:1019400007EE103AB8EEC77A77EE277A77EE867A06
:101950009FED296A37E01A68920627D51968254A4B
:10196000C1F3C1011B6BCA40C3F3080307EE102A81
:10197000F8EEC75A85EEA67A06EE903AF8EEE66AD9
:1019800076EEA77A77EE867A184B67EE877A1B6B2E
:10199000C3F34623013307EE103AF8EEC76A87EE29
:1019A000A67AFCEEC77A17EE900A9DE71B6BC3F38D
:1019B000080307EE103AB8EEC77A77EE277A77EE8B
:1019C000867A9FED0E6A86EE267ADDE71B6BC3F3FF
:1019D000080307EE103AB8EEC77A77EE277A77EE6B
:1019E000867A9FED076AEEE706487DE700440258D5
:1019F00000093D000090D0030024744A0024744C78
:101A000020BCBE4B40787D012DE9F0410D460446D7
:101A100010B90120BDE8F081884A136803F00F0374
:101A20008B42C0F0928023685E0700F19A802368A1
:101A300018070BD5824A6069D16901F070018842AC
:101A400004D9D36923F070030343D3612368D90613
:101A50000BD57B4AA069D16901F4E061884204D9C1
:101A6000D36923F4E0630343D36123689A060BD55B
:101A7000734AE069116A01F07001884204D9136A5F
:101A800023F070030343136223689B070BD56C4A52
:101A9000E068916901F00F01884204D9936923F04D
:101AA0000F03034393612368DF0768D423689E070D
:101AB00000F19B80614A136803F00F03AB4200F210
:101AC000A2802368580700F1AA80236819070BD564
:101AD0005B4A6069D16901F07001884204D2D36920
:101AE00023F070030343D3612368DA060BD5544A0D
:101AF000A069D16901F4E061884204D2D36923F47A
:101B0000E0630343D36123689B060BD54C4AE0692D
:101B1000116A01F07001884204D2136A23F0700345
:101B200003431362FFF7D4FE454B464A9B69C3F358
:101B30000323D35C03F01F03D840434B1860434B8F
:101B4000BDE8F0411868FEF75BBF136823F00F0390
:101B50000B431360136803F00F038B427FF459AFFC
:101B600061E7374A2069916901F0700188427FF688
:101B70005EAF936923F070030343936157E7304BE3
:101B8000A1689A6922F470620A439A6161681A68CE
:101B900002291DD112F4003F3FF43BAF1A6941F214
:101BA0008838274E22F007020A431A61FEF788FFA1
:101BB00007463369626803F03803B3EBC20F3FF4A2
:101BC00075AFFEF77DFFC01B4045F2D9032021E72A
:101BD000032902D112F0007FDEE7012902D112F4BD
:101BE000807FD9E712F0040FD6E7154AE0689169C3
:101BF00001F00F018842BFF45DAF936923F00F033A
:101C00000343936156E7136823F00F032B431360DC
:101C1000136803F00F03AB427FF4FBAE51E7084AB1
:101C20002069916901F070018842BFF44EAF936959
:101C300023F070030343936147E700BF0020005285
:101C400000440258201E0008000000200C00002064
:101C5000DFF834D0002103E00C4B5B5843500431D3
:101C60000B480C4B42189A42F6D30B4A02E0002371
:101C700042F8043B094B9A42F9D3FEF783FE00F089
:101C800011F8FEF729FB704700000220401E0008F3
:101C9000000000203C0400203C040020D004002070
:101CA000FEE7000070B50D4E0D4D761BB61006D048
:101CB0000024013455F8043B9847A642F9D1094E57
:101CC000094D761B00F0A0F8B61006D000240134B0
:101CD00055F8043B9847A642F9D170BD341E000860
:101CE000341E00083C1E0008341E0008024B13B1CD
:101CF000024800F005B87047000000000D1D000804
:101D0000002301461A46184600F01EB838B50A4CA2
:101D10000A4D641BA4100AD004F18043013B05EB7B
:101D20008305013C55F804399847002CF9D1BDE8EA
:101D3000384000F06FB800BF401E00083C1E00088D
:101D4000704700BF704700BF2DE9F8432B4D064692
:101D5000286898460F469146FFF7F2FF284B1C680B
:101D6000D4F84831002B3DD05A681F2A0DDC02F10F
:101D7000010C16BB0232C3F804C0286843F8227075
:101D8000FFF7E0FF0020BDE8F8831E4B7BB34FF464
:101D9000C870AFF30080034648B3D4F8482100214F
:101DA000C0E900214FF0010CC4F848010A46C0F810
:101DB0008811C0F88C11002EDCD003EB82010124C5
:101DC000C1F88890D3F8880194402043022EC3F8CC
:101DD0008801C1F80881CDD1D3F88C110C43C3F828
:101DE0008C41C7E704F5A673C4F84831BCE72868FE
:101DF000FFF7A8FF4FF0FF30C5E700BF3804002011
:101E0000301E000800000000F8B500BFF8BC08BC98
:101E10009E467047F8B500BFF8BC08BC9E467047A8
:101E20000000000001020304010203040607080980
:101E300010000020ED1C0008BD02000899020008F7
:101E40000090D0030090D0030100000010000000BB
:101E500000000000FC02002064030020CC030020EE
:101E60000000000000000000000000000000000072
:101E70000000000000000000000000000000000062
:101E80000000000000000000000000000000000052
:101E90000000000000000000000000000000000042
:101EA0000000000000000000000000000000000032
:101EB0000000000000000000000000000000000022
:101EC0000000000000000000000000000000000012
:101ED0000000000000000000000000000000000002
:101EE00000000000000000000000000000000000F2
:101EF00000000000000000000100000000000000E1
:101F00000E33CDAB34126DE6ECDE05000B000000A5
:101F100000000000000000000000000000000000C1
:101F200000000000000000000000000000000000B1
:101F300000000000000000000000000000000000A1
:101F40000000000000000000000000000000000091
:0C2270000000000000000000AC04002092
:0200000490006A
:100000000000082481030090D14B0090D54B009054
:10001000D94B0090DD4B0090E14B009000000000B8
:10002000000000000000000000000000D1DC009093
:10003000E54B00900000000061DD0090F5D30090DA
:10004000D1030090D1030090D1030090D103009020
:10005000D1030090D1030090D1030090D103009010
:10006000D1030090D1030090D1030090D103009000
:10007000D1030090D1030090D1030090D1030090F0
:10008000D1030090D1030090D1030090D1030090E0
:10009000D1030090D1030090D1030090D1030090D0
:1000A000D1030090D1030090D1030090D1030090C0
:1000B000D1030090D1030090D1030090D1030090B0
:1000C000D1030090D1030090D1030090D1030090A0
:1000D000D1030090D1030090D1030090D103009090
:1000E000D1030090D103009000000000D1030090E4
:1000F000D1030090D1030090D1030090D103009070
:10010000D1030090D1030090D1030090D10300905F
:10011000D1030090D1030090E94B0090D1030090EF
:10012000D1030090D1030090D1030090D10300903F
:10013000D1030090D1030090D1030090D10300902F
:1001400000000000000000000000000000000000AF
:10015000D1030090D1030090D1030090D10300900F
:10016000D1030090D1030090D1030090D1030090FF
:10017000D1030090D1030090D1030090D1030090EF
:10018000D1030090D1030090D1030090D1030090DF
:10019000D1030090D1030090D1030090D1030090CF
:1001A000F54B0090D1030090014C0090D1030090DA
:1001B000D1030090D1030090D1030090D1030090AF
:1001C000D1030090D1030090D1030090D10300909F
:1001D000D1030090D1030090D1030090D10300908F
:1001E000D1030090D1030090D1030090D10300907F
:1001F000D1030090D1030090D1030090D10300906F
:10020000D1030090D1030090D1030090D10300905E
:10021000D1030090D1030090D1030090D10300904E
:10022000D10300900D4C0090194C0090000000008C
:10023000D1030090D103009000000000D103009092
:10024000D1030090D1030090D1030090D10300901E
:10025000D1030090D1030090D1030090D10300900E
:10026000D1030090D1030090D1030090D1030090FE
:10027000D1030090D1030090D10300900000000052
:10028000D1030090D1030090D10300900000000042
:0802900000000000D103009002
:1002A00010B5054C237833B9044B13B10448AFF3B0
:1002B00000800123237010BD405B0024000000007B
:1002C000B43E029008B5034B1BB103490348AFF39A
:1002D000008008BD00000000445B0024B43E029092
:1002E00001F0FF01102A2BDB10F0070F08D010F8E7
:1002F000013B013A8B422DD010F0070F42B3F6D1EB
:10030000F0B441EA012141EA014122F007047FF003
:1003100000070023F0E80256083C85EA010586EA5A
:10032000010685FA47F5A3FA87F586FA47F6A5FA96
:1003300087F68EB9EED1F0BC01F0FF0102F00702A2
:1003400032B110F8013B013A83EA010313B1F8D14D
:100350000020704701387047002D06BF354603382E
:10036000073815F0010F07D1013015F4807F02BF67
:10037000013015F4C03F0130F0BC0138704700BFB8
:10038000DFF834D0002103E00C4B5B5843500431BC
:100390000B480C4B42189A42F6D30B4A02E000235A
:1003A00042F8043B094B9A42F9D306F04DFC23F086
:1003B0009BF803F05DFE7047000008245C72029019
:1003C0000000002440010024405B00244466022415
:1003D000FEE70000704700BF704700BF08B501F09E
:1003E000E7FEBDE8084001F06BBE00BF01F0E2BED1
:1003F00040687047416070474FF0E020084B094A61
:10040000D0F8FC1D41F08071C0F8FC1DD3F8B01F7E
:100410000A43C3F8B02F1A6842F001021A6070470D
:10042000001000E055CEACC5511A01EB5301B1FBF1
:10043000F3F07047014B5868704700BF001000E0B0
:10044000704700BF10B504460C2122F0CAFC2046BC
:1004500010BD00BF03680C4A1B6910B5044649B1C2
:1004600093420DD1094B5868A26863689B1A0344F4
:10047000636010BD934205D1044B5868A06010BD65
:100480009847F1E79847F9E735040090001000E03D
:10049000704700BF0000000000B585B008220023AF
:1004A000002069469FED067BCDE902238DED007BA0
:1004B00006F0D8FA05B05DF804FB00BFAFF300808A
:1004C000E00100001001000030B585B000200D46AD
:1004D000144601A90190CDE9020006F051FB0198F4
:1004E00020B10120DDE902232A60236005B030BD80
:1004F00010B50446042122F074FC204610BD00BF54
:100500000821104808B507F035FF012801D10E4B2E
:10051000186080210D4807F02DFF012801D10A4BFA
:1005200058604021094807F025FF012801D1064BFA
:1005300098604021064807F01DFF012801D1024BB9
:10054000D86008BD001802585C5B00240004025803
:1005500000000258032827D8DFE800F01D140B0222
:10056000124B40211248DA68B2FA82F2520907F0BF
:1005700007BF0E4B40210F489A68B2FA82F2520927
:1005800007F0FEBE094B80210A485A68B2FA82F28F
:10059000520907F0F5BE054B082107481A68B2FA60
:1005A00082F2520907F0ECBE704700BF5C5B00248A
:1005B000000002580004025800180258032827D8E7
:1005C000DFE800F01D140B02124B40211248DA68DC
:1005D000003A18BF012207F0D3BE0E4B40210F484E
:1005E0009A68003A18BF012207F0CABE094B802161
:1005F0000A485A68003A18BF012207F0C1BE054BED
:10060000082107481A68003A18BF012207F0B8BE4F
:10061000704700BF5C5B00240000025800040258D1
:1006200000180258032813D8DFE800F00E0A06026B
:100630004021084807F0A8BE4021074807F0A4BEA3
:100640008021054807F0A0BE0821044807F09CBEA1
:10065000704700BF000002580004025800180258FA
:1006600000207047012380F8741080F875307047BF
:10067000002070470A1E034B416418BF01221A7004
:10068000704700BF6362022400207047836B0846F6
:1006900003B11847704700BF4FF6FF70704700BFA7
:1006A000704700BF08B5094B1B888B4208D8084B20
:1006B0001B88934204D80748074B01801A8008BD65
:1006C000064B9E21064A074822F0BAFB58620224D4
:1006D0005A6202245E620224606202244C3F02904D
:1006E000B03F0290F43F029010B5044611F02AFD8D
:1006F00023682046D3F8AC30BDE81040184700BF4F
:1007000001F032BE01F036BE10B501F0F5FE124820
:100710000023C0F88430BFF34F8FD0F8803043F609
:10072000E074C3F34E3CC3F3C90E4FEA4C1C0CEA11
:100730000401734641EA8372013BC0F874225A1CDB
:10074000F8D1ACF1200C1CF1200FF0D1BFF34F8F8A
:10075000BFF36F8F10BD00BF00ED00E001F0E0BD02
:1007600001F0F0BF01F0DABF01F0E4BD10F042BFCC
:1007700010B50446882122F034FB204610BD00BF8E
:1007800090F877301BB1406803681B68184718461B
:10079000704700BF90F8742090F834309A420B4BA9
:1007A0001A780BD04AB90A4A4FF0010C094910884F
:1007B00083F800C00B88088013807047002AFCD0A3
:1007C000034A4FF0000C0349F1E700BF5C620224CA
:1007D0005A620224586202244068044A03689B69F2
:1007E000934201D100207047184700BF6106009076
:1007F000A9B10264003AC16318BF01220C490A7012
:1008000002680C49D2F88C208A4206D1191E0A4A85
:10081000436418BF01211170704719461047074BF8
:1008200040F2D221064A074810B522F009FB00BF6A
:100830006262022475060090636202243C400290CA
:1008400074400290F43F029008B503680446174DC7
:10085000D3F880309847236820469B6F984701F073
:10086000BBF8236820461B6F9847012204211048DB
:1008700007F086FD012280210E4807F081FD01224C
:100880000D48114607F07CFD01F0A6F823682046CC
:100890001B6FAB4207D111F055FC23682046D3F8FB
:1008A000AC309847F0E79847EEE700BFE9060090C4
:1008B00000000258000C02580028025838B50446BF
:1008C00001F04AFF17482368E16BD3F88850226C87
:1008D000854219D1F9B1003A1349D3F88C3018BFC9
:1008E000012212488B421249027011D1114B012290
:1008F00061641A7004F17C052846FFF77DFD012331
:10090000256184F86C3038BD094B2046A847F1E7D3
:1009100020469847EEE7084B40F2D221074A0848A4
:1009200022F08EFAF10700907506009062620224B0
:10093000000000D0636202243C40029074400290A8
:10094000F43F029008B5074B28B11868012111F057
:1009500013FC012008BD0146186811F00DFC0120B0
:1009600008BD00BF646202244069704790F84000EF
:10097000704700BF036B0BB101207047C06A00389D
:1009800018BF0120704700BF80687047704700BFE4
:1009900004308C460FC88CE80F007047704700BFCA
:1009A00008B5034A40F2CF11024B034822F048FA3F
:1009B000A04102909C410290FC41029010B5044677
:1009C000482122F00EFA204610BD00BF2DE9F04F5D
:1009D00085B00546654C039002202061E868050754
:1009E00003D020F00F00614C1030206000095F4CF4
:1009F00000275F4EE06000EB40005E4DC0013760B5
:100A0000DFF89CB100900398DFF8988100692F709F
:100A100000F00F00AF602F73C0F110006F61DFF8BE
:100A20008891A0604FF47070DFF880A16060524838
:100A3000524C0360524B53481F60534BC8F8007030
:100A40001F60524B1960524B1A604FF48032514B69
:100A50001F600123CBF800306B6808F0C1FDD9F8A6
:100A600000301BB14C4B1B68002B7DD1D8F80030F7
:100A700003EB430215F8221005EB8202012942D054
:100A80003368012B29D03368C3B9DBF80030B3FADF
:100A900083F35B095B0023602368022B13D0236878
:100AA000012BDCD100233C4ACAE90233CAF80430E6
:100AB000C9F80030136005B0BDE8F08F0023236053
:100AC0002368022BEBD1354B4FF0FF3118680CF047
:100AD000F9FD2368012BC2D1E4E7294B1B6803EB26
:100AE000430315F82330002BCDD1D8F8003003EBA9
:100AF000430315F82330002BC5D102212148336070
:100B000008F0B6FEBFE7DBF800100129B8D10133C9
:100B10002049DAF80000012BD1F800C088BF3B461D
:100B2000C8F80030DAF80830591C02334AF833C0EC
:100B30000AEBC3035A60039AB1FBF0F300FB1311F5
:100B4000506CDAF80C20CAF8081001321149CAF8C2
:100B50000C20064A0B68D26813440B600368CBF87C
:100B600000701B6998478BE7012394E7A05B002482
:100B70009C5B002404000024745B00248C5B002434
:100B8000885B002400AF00247C5B0024785B002499
:100B9000805B0024945B00246C5B0024D85B002401
:100BA000705B0024845B0024905B0024B45B002411
:100BB000F8B5036801292A4E0446DB6A38BF0121D3
:100BC000B3420D4638D1836899422AD86B1EE26938
:100BD000206B02EB031750B3A36B0F2B37D90368BD
:100BE00007F10806DB6831469847206B1022616BDD
:100BF00003681B699847B0B1236BE663BBB1626BB6
:100C0000937A517A1B0443EA0123117AD27A0B4377
:100C100043EA0263226A6561043A1A44A261F8BD9C
:100C2000A3681D46D2E70D2384F84030E4E707F1BE
:100C30001003E26AD358EDE798478542C6D9236886
:100C4000DB6AB342ECD0204698470546BEE7092050
:100C5000044B054AA62184F84000044822F0F0F82D
:100C600089090090584202906C420290FC41029027
:100C70002DE9F04F0446006B83B01546A6690028A5
:100C800000F0E480A36B072B40F2E7800368314655
:100C9000DB689847206B0822616B03681B699847E3
:100CA000002800F0CF80A769206B3A1DE66300287A
:100CB00000F0DC80921B0837D4E90D63B118B25CF8
:100CC0008E7891F801C0360446EA0C261643CA789D
:100CD00046EA0266B342C0F0C08003683946DB686A
:100CE0009847206B3246616B03681B69984710B9BF
:100CF0000D2384F84030616BE763002D53D05C4ACC
:100D00005C4BD2681D60002302EB42025A4D5B4FE0
:100D1000D2012B703B60AB602B736B610092584A21
:100D2000DFF888811360574ADFF884A11360564AC0
:100D3000C8F800301160554A55481660554ADFF82A
:100D40007491136001234FF48032534ECAF800307F
:100D50006B68DFF864B108F043FC08E0DAF80030B3
:100D6000B3FA83F35B095B0033603368DBB9D9F80E
:100D700000301BB1494B1B68002B61D1D8F8003003
:100D800003EB430215F8221005EB8202012924D05F
:100D90003B68012B0BD03B68002BDFD00023336076
:100DA0003368002BE3D0012003B0BDE8F08F344B53
:100DB0001B6803EB430315F82330002BEBD1D8F865
:100DC000003003EB430315F82330002BE3D102215D
:100DD0002F483B6008F04CFDDDE7DAF800100129F0
:100DE000D6D1DBF8081001332A48DBF800C0012B0C
:100DF000D0F800E001F1010001F1020188BF0023F9
:100E00004BF831E00BEBC101C8F8003000234A6019
:100E1000DBF80C10B0FBFCF201310CFB1200CBF83C
:100E20000C10CBF8080012491A48C96802680A4435
:100E30000260606CCAF8003003681B699847A7E736
:100E4000012391E70D2384F840302CE7321DE16A3D
:100E500006F108038E5819444FE70920104B114A38
:100E6000A62184F84000104821F0EAFF3E46EEE754
:100E7000A05B0024745B0024040000249C5B00241D
:100E8000885B00247C5B0024785B0024805B00246A
:100E900000AF0024945B00248C5B00246C5B002476
:100EA000584202906C420290FC410290845B002404
:100EB000705B0024905B0024B45B002443692DE93F
:100EC000F047002B00F098800546006BAC690028C5
:100ED00000F08280AB6B072B40F2838003682146D1
:100EE000DB689847286B0822696B03681B69984781
:100EF00000286DD0AB69286B1A1DEC6300286DD0FB
:100F0000121B6C6BA118A25C8C784E78240444EA06
:100F100006241443CA7844EA02640D2743F23006DB
:100F200039E0AB6B072B5CD903682146DB68984737
:100F3000286B0822696B03681B69984708B985F814
:100F40004070286BAA69EC63002853D0121B696BB0
:100F50008B18895C9C7993F805A0240493F804E02D
:100F600093F8019044EA0A2493F807C093F80380A9
:100F700041EA09219A7844EA0E0442EA082344EA45
:100F80000C6446F26432B14208BF93420CBF0121A7
:100F900000211AD0AB691C44AB6A04F108029A42E2
:100FA0000ED26B690934013324F00104C5E905341C
:100FB0000028B6D1EB6A1A19195B53885468E0E728
:100FC00001222B6A0021C5E905230846BDE8F08708
:100FD0000D2385F840308DE7221D2346E96A8C58A1
:100FE0009BE70920074B084AA62185F840000748DF
:100FF00021F026FF1446DDE7054BEC21054A0348A6
:1010000021F01EFF584202906C420290FC41029077
:10101000B0420290FC42029043692DE9F041002B5E
:1010200000F09B800446006B0E46A569002861D045
:10103000A36B072B40F2978003682946DB6898472B
:10104000206B0822616B03681B69984700284CD00D
:10105000206BA169E56300284BD001F1040C8A1CC8
:10106000636BACEB050C521B4D1B03EB0C0E13F822
:101070000C7003EB050813F805C098F801509EF8B2
:1010800001804CEA052C9EF802509EF803E02D04E6
:1010900045EA08253D4345EA0E6503EB020E9B5CDD
:1010A0009EF8012043EA02234A19A76A02F1080EBA
:1010B000BE4513D243F23007BC4524D146F2643713
:1010C000BB4220D11DBB72460132636A22F001028D
:1010D0009A42A26102D00120BDE8F0810122236A78
:1010E0000020C4E90523BDE8F0810D2384F84030D9
:1010F000AEE70D46E26A2946002032F805C02A44D0
:1011000053885568D0E7A261002DDDD1DBE701F1FE
:101110000807A761F0B1A36B9D4224D80368394644
:10112000DB689847206B2A46616B03681B69984708
:1011300010B90D2384F84030616BE76326B1334664
:101140002A462046FFF742FCD4E9053201332A44FF
:101150006361B9E7E16A3944F0E7074BB821074A10
:10116000074821F06DFE0920064B074AA62184F8A6
:101170004000034821F064FEB042029030430290E8
:10118000FC410290584202906C42029038B5002512
:101190000F4B04460360C56380F84050C0E9055515
:1011A000C0E90755C0E90955C0E90B55C0E90D551F
:1011B000C0E90355C0E9015502F03EFA2A46294626
:1011C00001200CF02FFA034B024620461A6038BD6E
:1011D000B0440290D85B00242DE9F04F0021066B4B
:1011E00083B00546816180F84010002E00F0AA818E
:1011F000836B472B40F2028233683046DB689847A6
:10120000286B4822696B03681B699847002800F027
:10121000CE8000232E6BAF69B146EB63002E00F049
:101220009281D5F834800422BE4908EB070B58465A
:1012300022F0A8F8002840F0EA8107F10800042213
:10124000B949A861404422F09DF8002840F0FA8195
:1012500007F10C0A0422B54908EB0A00C5F818A0EA
:1012600022F090F80190002840F0E2819BF81240B3
:101270009BF8112024049BF8133044EA02249BF8C5
:101280001020144354EA036400F0CB8107F11400EA
:101290000422A749404422F075F8002800F08B8012
:1012A0000623DDF804B007F1180085F8403040440B
:1012B0000422A04922F066F8002800F08580072368
:1012C00085F8403054440834B9F1000F15D0AB6BA9
:1012D0000B2B40F29381D9F8003021464846DB6859
:1012E0009847286B0C22696B03681B69984710B9F3
:1012F0000D2385F840302E6BEC6395F840908E4FAF
:1013000004F10808002E41D0EB6B0422686B3946CB
:10131000A8EB0303184422F035F800283ED0B9F1B9
:10132000000F3ED1AB6AA34240F2A7800434002EE6
:1013300046D0EA6BD5E90D13A41A0B2B01EB04027E
:10134000095D947850784FEA0444D27844EA002446
:1013500044EA010444EA0264444440F24F813368A1
:1013600021463046DB689847286B0C22696B03687E
:101370001B69984710B90D2385F840302E6B04F196
:10138000080895F84090EC63002EBDD1E86A04226D
:101390003946404421F0F6FF0028C0D1B9F1000FD2
:1013A0006BD00A2385F8403003B0BDE8F08F0D23E1
:1013B00085F840302DE707F118004FF0010B76E774
:1013C000EB6A1C5944449BE7BBF1000F3FF47AAF32
:1013D00007F12001B9F1000F00F0F480EB6B6A6BAC
:1013E000C91AC3F13000DFF858C112F8018002EBCE
:1013F000010EC3F14001C3F1440338449EF801B02B
:1014000039441F449EF802309EF803E01B0443EA6F
:101410000B2343EA080343EA0E63ACFB03C302EB6E
:10142000000C9B096B609CF802309CF801801B0447
:1014300012F800E09CF803C0501843EA082343EA7E
:101440000E0343EA0C63AB60837890F801C01B0481
:10145000515C43EA0C230B43C17843EA0163D11981
:10146000EB608B7848781B04D25D43EA002313437A
:10147000CA7843EA02632B6124E704F10C030434C5
:10148000AB61002E00F0B280EB6BE41AD5E90D12CF
:1014900004F1020C671C11F804E0E01C11F80C3098
:1014A000032A11F807904FEA034343EA092343EA6A
:1014B0000E0311F800E043EA0E6343446B6211F837
:1014C0000C3011F807C00F5D4FEA0344095C44EA91
:1014D0000C2444EA070444EA0164444440F28E8048
:1014E000336821463046DB689847286B0422696BD5
:1014F00003681B69984700285AD02B6BEC63002BBC
:1015000000F0AA80686B04220C4921F03BFF002800
:1015100066D10122AB69EC616A612B6203B0BDE860
:10152000F08F00BF8C430290444402903C440290F0
:10153000344402901C440290244402902C440290B3
:10154000D34D62103746D5F82C800422444908EB6D
:101550000704204621F016FF002858D107F10800A3
:1015600004224049A861404421F00CFF002869D1C1
:1015700007F10C0A04223C4908EB0A00C5F818A040
:1015800021F000FF8346002852D12469002C48D066
:1015900007F1140004223549404421F0F3FE58B904
:1015A00007F118004FF0010B40444FF000097FE6AF
:1015B0000D2385F84030A0E7062307F1180085F8D1
:1015C0004030F1E7EB6A5A583B442949A1FB02122B
:1015D00092096A601A6BAA601A6CEA605B6C4AE74F
:1015E0000B2385F8403003B0BDE8F08FE86A03595B
:1015F00043446B6204594444204484E709201D4B52
:101600001D4AA62185F840001C4821F019FC032042
:101610001B4B1C4A4FF49A7185F84000174821F083
:101620000FFC194B40F24911164A144821F008FCEE
:101630000520164B134A40F2431185F840000F482D
:1016400021F0FEFB0420124B0E4A4FF49E7185F8E8
:1016500040000A4821F0F4FBE86A204453E700BF49
:101660008C430290444402903C44029034440290E3
:10167000D34D6210584202906C420290FC4102909D
:1016800094430290B043029010440290F8430290B9
:10169000E043029010B40024C0E90A2104635DF81D
:1016A000044BFFF799BD00BF10B50B68044600223C
:1016B00008469B68C4E90B21984703462046A3626D
:1016C000BDE81040FFF788BD08B54B680846012B00
:1016D0001AD0022B10D04BB9CB6859072FD1836891
:1016E0005A0703D023F00703083383601A4A1B49C3
:1016F0000FF028FC40BB08BDCB681A07EFD023F0E1
:101700000F031033CB60EAE7CB681A0703D023F04E
:101710000F031033CB608368190703D023F00F0346
:10172000103383600C4A0D4901F0FAFE0028E2D024
:101730000B4B40F22E210B4A0B4821F081FB23F08A
:1017400007030833C360CAE7054B4FF41271054A1B
:10175000054821F075FB00BF985B0024D45B002492
:101760004C44029060440290FC41029010B40C4C36
:101770000C4A236812680B449342236002D35DF83D
:10178000044B7047D21A084B1C68B2F5803F2144C5
:1017900028BF4FF480325DF8044B196007F09ABF00
:1017A0007C5B0024805B0024785B002470B51E4EB7
:1017B000054601201D4C336803EB4301034404F844
:1017C0002100834204EB81018A601AD9002213466A
:1017D000326003EB43015A0014F82110C9B91449CF
:1017E00013442846CA6804EB830402EB4202616892
:1017F000D20107F073FF0F4BBDE8704018680BF083
:1018000095BF03EB430133605A0014F821100029FF
:10181000E5D00221284607F025FF074A0121336859
:10182000116003FA01F2DAE7885B00240400002467
:10183000A05B0024D85B00249C5B002472B6FEE70A
:10184000014B01221A607047905B002470B51B4960
:10185000022305681A4C0A6863632B01194EB3FB17
:10186000F2FC02FB1C324B68366803FB0CFCCB68B5
:10187000A6EB030E0E694FEA0C1C754506FB02F23F
:1018800017D3896841EA035161640F49C3F11E030C
:101890004068002409681B0140681144084A6144FB
:1018A000D163136409490A4B1461D161D06013609C
:1018B00070BD190541F010016164E6E7A05B0024EA
:1018C00000100052985B0024745B00240B0009FF99
:1018D00001020100002243680B491A70C9689A602E
:1018E00011B90A4B01221A60094B0A491B68C968E1
:1018F00002685B1A9A4202D3074B01221A60074B17
:1019000018680BF013BF00BFB45B0024705B0024A9
:10191000985B0024A05B00246C5B0024D85B00244F
:10192000034B00220221DA601960C3E901227047EB
:10193000B45B00240121002208B508460BF072FEBA
:101940000B4B186040B10022042101200BF01AFF5C
:10195000084B186030B108BD074B2821074A0848DA
:1019600021F06EFA074B2C21044A054821F068FA51
:10197000E05B0024DC5B0024EC44029038450290DC
:1019800068450290BC450290024B4FF0FF31186849
:101990000BF098BEE05B0024014B18680BF0C6BE4C
:1019A000E05B0024024B002118680BF08BBE00BFE7
:1019B000E05B0024014B18680BF0B8BEE05B00242C
:1019C0000348002303491A4600680BF019BF00BF03
:1019D000DC5B00241C00002410B5002382B0074CFF
:1019E0001A4601A920680BF04DFF4FF0FF3300228B
:1019F00001A920680BF046FF02B010BDDC5B00249B
:101A000003685B6C184700BF0120704705494FF021
:101A10008062054B0160C3F88820BFF34F8FBFF38E
:101A20006F8F70476847029000E100E00F4B82B073
:101A30000F49D3F8D4200F4842F010020862C3F8CF
:101A4000D420D3F8D42002F010020192019ADA6F68
:101A500042F01002DA67DA6F22F01002DA67064B02
:101A60004FF080629A6002B0704700BF0044025895
:101A700098AE0024251E009000E100E040F2EF3017
:101A8000704700BF09494FF08062094B10B50160F3
:101A90000446C3F88820BFF34F8FBFF36F8F40F623
:101AA000A85121F09EF9204610BD00BF6847029062
:101AB00000E100E010B504464FF0FF31D0F8A40D6E
:101AC0000BF06AFD606803681B68984778B9637A11
:101AD0006BB1237A2BB92268204684F8A03D536A63
:101AE0009847D4F8A40DBDE810400BF079BD0B4B1E
:101AF000DA68002AF5D0227A002AF2D15868012249
:101B0000023084F8A02D227203EBC000FFF79EFE86
:101B1000D4F8A40DBDE810400BF062BDB45B002406
:101B200038B590F8A03D044643B903689B6A9847CE
:101B3000154BDA680AB1227AD2B138BD124BDA6895
:101B4000002AFAD0017A0029F7D00021013AD3E91E
:101B500000502172411CDA600230B1FBF5F205FB46
:101B6000121103EBC0005960BDE83840FFF7B2BE68
:101B700058680122023084F8A02D227203EBC000C5
:101B8000BDE83840FFF762BEB45B002438B58B7FF8
:101B90000A2B3ED8DFE803F03B062A3D3D3D3D06DB
:101BA000060606000124B1F814C0C88A4A8B1C4BF3
:101BB00040EA0C40A2EB0C025C6358640869D863ED
:101BC0001A640D68082D13D00022DC61154C1A61CF
:101BD000C9680A0A4809C1F3C40102F4784200F452
:101BE000FC6002430A439A631C6038BD0024DAE7B4
:101BF0009A611A615C620C4A0C7F42EA04620B4CE7
:101C0000DA61CA681A625861D8601C6038BD022463
:101C1000C9E7074B8821074A074821F011F900BF9F
:101C2000001000520102030009000100010202003D
:101C3000004602901C46029068460290F8B591F862
:101C40001DE0BEF10B0F00F2C180DFE81EF0630063
:101C500065004C00BF00BF00BF00BF000C000C00BF
:101C60000C000C000C00052591F81EC0BCF10B0FF8
:101C700000F2AC80DFE80CF0524B0EAAAAAAAA062A
:101C800006060606ACF10703032B00F2A580052625
:101C9000012701E0002637468B8A4A8B0C8BC88AC5
:101CA000D21AE41A40EA0340524B1A649A611C614A
:101CB0004A685F6358640869D863DA600A68802AF2
:101CC0003BD012D8202A2CD0402A2AD0042A69D10D
:101CD0000A7F494945EA026242F40032DA615E62F3
:101CE00058611960F8BD0025BEE7B2F5807F67D066
:101CF000B2F5007F56D10C7F404A42EA0462DA61B5
:101D00003D4AC96819625E6258611A60F8BD0126D1
:101D10003746C1E70225A7E70125A5E70226374692
:101D2000BAE70B7F334A45EA036343F40033D361D8
:101D3000314B566250611360F8BD8A68141DDC6235
:101D40000C7F117845EA046545F40035DD615E627B
:101D50005861B1B951880124D869294A0139024032
:101D600042EA0122DA61234AD36943F02003D361B6
:101D7000D3699B06FCD41023936024B31E4B1360DD
:101D8000F8BD01292ED15188FF3CD8691C4A01F1C8
:101D9000FF3118BF0124024042EA012242F0100242
:101DA000DA61E0E70A7FE645124B45EA026514BFB7
:101DB000144A40F2012245F40035DD611A60F8BD95
:101DC0000C7F114A99E70F4B1360F8BD0F4B672149
:101DD0000F4A104821F034F80C4B88210E4A0D4868
:101DE00021F02EF80D4B4FF489710D4A094821F06E
:101DF00027F800BF00100052010202000900020093
:101E0000EF00FFFF010201000A00020000460290FD
:101E1000B8460290684602901C4602900447029021
:101E2000204702901F4B20491B6870B55C682368EF
:101E30005A698A4225D194F8A02D42B99B6A20465E
:101E400098471A4BDA680AB1227AF2B170BD174B83
:101E5000DA68002AFAD0217A0029F7D00021013A65
:101E6000D3E900502172411CDA600230B1FBF5F277
:101E700005FB121103EBC000BDE870405960FFF78D
:101E800029BD2046BDE87040104758680122023045
:101E900084F8A02D227203EBC000BDE87040FFF76C
:101EA000D5BC00BF64620224211B0090B45B0024F7
:101EB00070B5104B0646044600250C306022357282
:101EC0007572706044F8203B214610F07FFA21467D
:101ED00006F55A63CD6024318B42FBD186F8A05DB4
:101EE0000020C6F8A45D0BF017FB03463046C6F889
:101EF000A43D70BD68470290012070470C207047D8
:101F000001EB410100EB81000830704701EB41011A
:101F100000EB81000830704701207047EC207047CB
:101F2000EC2303FB01000830704700BFEC2303FBE8
:101F300001000830704700BF012070471020704733
:101F400000EB01100830704700EB011008307047BB
:101F5000084603F0CDB800BF034B10B5044603603C
:101F60000FF09FF8204610BD20480290054B10B599
:101F7000044603600FF095F81421204620F031FF4D
:101F8000204610BD20480290034B10B50446036064
:101F90000FF087F8204610BDEC470290054B10B5B6
:101FA000044603600FF07DF8F421204620F019FF6D
:101FB000204610BDEC470290034B10B50446036069
:101FC0000FF06FF8204610BDB8470290054B10B5D2
:101FD000044603600FF065F81821204620F001FF49
:101FE000204610BDB847029010B50C4A04460C4B71
:101FF00000F590702260C4F820310FF052F82046AE
:10200000084B40F82C3F0FF04CF82046064B40F8A8
:10201000143F0FF046F8204610BD00BF5448029010
:1020200020480290EC470290B847029010B50C4C43
:102030000C4A0D4B04F590702260C4F820310FF06B
:1020400030F82046094B40F82C3F0FF02AF8204684
:10205000074BBDE8104040F8143F0FF022B800BF16
:10206000E85B00245448029020480290EC4702901C
:10207000B847029010B50E4A04460E4B00F590701A
:102080002260C4F820310FF00CF820460A4B40F8CB
:102090002C3F0FF006F8094B204640F8143F0FF094
:1020A00000F820464FF4267120F09BFE204610BD1C
:1020B0005448029020480290EC470290B8470290A2
:1020C0002DE9F04182B0002402F028FE054602F01E
:1020D00029FE2346014622462846009415F08CF836
:1020E000284B294A2046294C1A6003F0B3FB2848A4
:1020F00014F0EAFF2368BFF35B8FDB0705D52548A3
:1021000002B0BDE8F041FEF7D9BB204620F06BFEDF
:102110000028F4D0204D214B05F59E7605F11400E2
:1021200005F12C0805F590772B60EF602E61C5E96D
:1021300001080EF0B7FF1A4B40466B610EF0B2FF7C
:10214000184B3846EB620EF0ADFF174B05F59A7051
:10215000C5F8203103F000FC2A4605F59A71304697
:1021600003F0EEFB304602F0C3FF104820F086FE7D
:10217000204620F044FE074802B0BDE8F041FEF7DB
:102180009DBB00BFC0620224B46C0024E45B002449
:10219000200000242C6C0024E85B002454480290AA
:1021A000B8470290EC470290204802902D20009002
:1021B000704700BF0148FEF747BB00BF2C6C0024EE
:1021C00070B5264B264C274E274D23603046FFF72F
:1021D0006FFE284618F01AF9244B00224FF4F070D5
:1021E0004FF48871DA621A869A6683F86C201A674F
:1021F000C3E903421E4C5C664FF080745C670124A7
:1022000083F878401B4C23601B4C20801B4CC3E997
:10221000016520804FF48075194C1A489D64C3E90C
:102220000522C3E90722C3E90922C3E90E22C3E953
:102230001022C3E91322C3E91522C3E91722218022
:102240000180114C11481249C3F88020227083F894
:1022500034201860C3F88420D96770BD3C3F0290D9
:10226000805E0024845E0024B86C00242C6C002462
:102270000100000164620224586202245E620224AA
:102280005A620224606202245C620224CC40029002
:10229000143F02900148FFF7B9BB00BF845E0024E1
:1022A00090F8252012B103685B691847704700BF9A
:1022B0000020704781807047C1807047018170475E
:1022C00041817047704700BF704700BF704700BF33
:1022D000704700BF704700BFB0F806C00368A2EBAC
:1022E0000C02B0F804C05B6DA1EB0C0112B209B294
:1022F000184700BF13684FF6FF7C4FF0FF31A0F87E
:102300000CC0C0E907311060704700BF90F825206D
:102310001AB190F8242002B118607047002070476D
:10232000034B902283F85A2383F85823704700BF49
:1023300000E100E0094A0A49D3680A48C3F30A03E6
:10234000013B9BB20B801169C1F30A010139018085
:102350001364536B43F00103536370470010005044
:10236000346D0024326D0024014BD3F8AC0070476B
:1023700000100050024B0122C3F8AC105A627047A3
:1023800000100050C0E90C1281637047704700BF15
:1023900000EB8100114640680368DB68184700BF06
:1023A00010B50446482120F01CFD204610BD00BF9A
:1023B00011B990F82900704708B5034A4FF4B87175
:1023C000024B034820F03CFD7448029060480290A4
:1023D000004A029021B94068114603681B6B1847F8
:1023E000034B4FF4B571034A034810B520F028FDA4
:1023F00060480290444A0290004A029009B9C068BD
:10240000704708B5024A7921024B034820F018FDB5
:10241000F44B029060480290004A029010B50C46BE
:1024200049B911461A464368C4601C681846A36837
:10243000BDE810401847034B9021034A034820F0A1
:10244000FFFC00BF60480290A84D0290004A029035
:1024500021B9C0E90411C0E90632704708B5034A42
:102460008221034B034820F0EBFC00BF844F029015
:1024700060480290004A02900FF0F8B890F84B3094
:1024800010B513B11A4B01221A701A4C0FF0FAF85A
:1024900094F8293063B994F82A304BB90123206CA1
:1024A00084F83D300BF042F994F83E30CBB910BDC2
:1024B000D4E90530E169226900FB03F301FB02F274
:1024C0009342EBD394F83C0038B19B1AB3FBF1F282
:1024D000994298BF02F1FF326262012384F82E30E4
:1024E000DCE7606C0BF07CF8002384F83E3010BD14
:1024F000306D0024806D00240FF082B80FF0DDB93C
:1025000090F83D3003B9704710B54FF0FF310446E5
:10251000406C0BF041F84FF48073A4F83D3010BDCF
:1025200038B50C4605464FF0FF31406C04EBC4044F
:102530000BF032F8686C0BF053F8002305EB8404C1
:1025400084F8283095F828300BB92B6BAB6338BD75
:1025500014484369D90323D5002310B5C0F884304B
:10256000BFF34F8FD0F8803043F6E074C3F34E3C96
:10257000C3F3C90E4FEA4C1C0CEA0401734641EA4E
:102580008372013BC0F874225A1CF8D1ACF1200CC4
:102590001CF1200FF0D1BFF34F8FBFF36F8F10BD31
:1025A000704700BF00ED00E010B5002933D10446AC
:1025B000052A09D8DFE802F00F1E222703090022AE
:1025C000012380F82920036210BD003B18BF0123BE
:1025D00080F82D3010BD406803681B6998470028BB
:1025E000F2D00122002384F8292084F82C20C4E9A9
:1025F000043310BD002380F8293010BD002203628F
:10260000C0E9042210BD00220121036280F82A10D3
:10261000C0E9042210BD034BA221034A034820F065
:102620000FFC00BF6048029040510290004A0290A7
:1026300010B539BB90F82930044623B994F82B30F3
:1026400063B9012010BD12494369096891F8671008
:102650000B44436194F82B30002BF2D0A168104654
:1026600013685B6911639847002394F82C0084F881
:102670002B300028E5D194F82D30002BE2D184F8DE
:10268000290010BD034BD021034A044820F0D8FB99
:10269000646202246048029014530290004A02903F
:1026A00090F8283070B5FBB90122856BC360A0F8A3
:1026B0002D2005F5872480F828200361436183617C
:1026C000C36103624362C0F82930D0E90C2632446A
:1026D000944210D80B4A85608463184681F83430E0
:1026E000C1F836200B6370BD074B40F2C511074A95
:1026F000074820F0A5FB074B5221074A044820F069
:102700009FFB00BFE0012001B4540290E45402900A
:10271000004A02906C560290A8560290084B4FF067
:102720008062C3F88820BFF34F8FBFF36F8F4FF0E5
:102730008072C3F88820BFF34F8FBFF36F8F70474D
:1027400000E100E0034B4FF080629A604FF080722E
:102750009A60704700E100E038B504460EF09FFF34
:1027600023685D6E11F042FD01462046A8472368AC
:10277000164AD3F8885095421CD1154A0125D3F842
:102780008C3002F57F311348C4E90F21124A0570DD
:10279000934216D10023114A6364137064684FF4A6
:1027A00087200F4B0F49104A4C6459601A63C3E9E4
:1027B0000D0238BD0D4A00232046A2F57F31A847FF
:1027C000ECE7002120469847E8E700BFF1070090BA
:1027D00000FC03D06262022475060090636202244A
:1027E000806D0024386D002400F40BD000F807D071
:1027F00010B5144C236823B3134B144A1B6C118877
:102800008B420AD007F088FF206803681B6A98474C
:102810000020BDE81040FDF7D1BE0D4B198807F030
:102820007BFF226892F86630013382F86630FFF74A
:10283000C7F820680FF086FC0020BDE81040FDF7C7
:1028400089BE10BD6462022400100050346D002463
:10285000326D00242DE9F043DFF8B88083B0012603
:102860004FF47077044624E02B6828465B6A98474B
:102870000023236229684FF4907300974FF4F0729D
:10288000D1F814902846A168C847236984F82C0021
:1028900001332361002833D02B689B6A434531D133
:1028A000686901380022E06084F82E20606C0AF02C
:1028B00097FE4FF0FF31206C0AF004FF4FF0FF311C
:1028C000606C0AF069FE94F82E30002BEED0216A7D
:1028D000656884F82B600029C6D1636A002BC9D0D3
:1028E0002A68D2E9099141450FD16869C118284683
:1028F000C8472369616A00220B4462622361B9E719
:102900000120CFE728469847CBE728468847636AE7
:10291000ECE700BF69090090014808B5FFF79AFF8E
:10292000806D002438B515480025FEF72FFC144CA7
:1029300014494FF480732A46012021602946A3855B
:10294000A387E560A56284F82E50A56384F83E5005
:10295000C4E90455C4E90655C4E90855C4E90C5551
:10296000C4E91055C4E901550AF05CFE0346284647
:1029700023640AF0D1FD606438BD00BF386D0024C7
:10298000806D0024545802902DE9F04F7E4C8DB09C
:10299000A4FB03430991190A089202EB1323069042
:1029A00007EE901A93420B9340F2E980774BDFF8E1
:1029B000EC815B6ADFF8E8910A93069A4FF0020E09
:1029C000089902F580700B010131CDE903200A98C6
:1029D0000891B3FBF0F200FB1233C2EB02125B0072
:1029E00003EB8223019309E0019BB3F5872F0FD3FB
:1029F000BEF1100F00F0B6800EF1020EBEF10A0F0C
:102A0000F2D1069B80330393019BB3F5872FF3D25A
:102A1000019A099BCDF81CE01344DDE9032103F181
:102A2000100C3033964602910593029B0CF56C76A0
:102A3000ACF1100574465F1E17F8013F0435544988
:102A4000023497F84000043651F823A065455149F7
:102A500014F8022C51F8231058F8203049449A44B5
:102A60004D4B53F8200009EB2A4301EB020A48447E
:102A700003EB020B9AF800A102449BF800B192F814
:102A800000214FEA9B0B4FEAD2024FEA4B1B4BEA65
:102A9000C22242EADA0225F8042C14F801AC03EB56
:102AA0000A0200EB0A0B8A4492F800219BF800B15D
:102AB0004FEA92029AF800A14FEADB0B4FEA42126A
:102AC00042EACB2242EADA0225F8022C94F806A068
:102AD00003EB0A0200EB0A0B8A4492F800219BF8F0
:102AE00000B14FEA92029AF800A14FEADB0B4FEADD
:102AF000421242EACB2242EADA0226F8042CE279B8
:102B000013441044114493F8003190F800214FEA27
:102B1000930391F800114FEAD2024FEA431343EABC
:102B2000C22343EAD10326F8023C85D1029B05F17A
:102B3000100C0EF1400E04330293059B63457FF4A5
:102B400074AF049BDDF81CE00833BEF1100F049352
:102B5000039B03F110030393019B03F5F0630193BF
:102B60007FF44AAF069B089A03F5C07306930B9B4C
:102B700093427FF422AF4FF47073044A936217EECE
:102B8000900A0DB0BDE8F08FABAAAAAA489A00241B
:102B9000C87D0024C8790024C8850024C881002489
:102BA0008C5802902DE9F04F1C0A8DB002EB1323D4
:102BB00007EE904A08929A42079009910B9380F091
:102BC0004A81A74BA74D5A6ADFF89C920A929A6AEB
:102BD0001B69DFF898A2DFF898B2DFF898820692B6
:102BE000019308E0079B0B9A03F580730793089BFA
:102BF000934200F03081079A089902F180000B019E
:102C00000131CDE902020A9808910699B3FBF0F26E
:102C100000FB123301FB02F25B0003EBC2030093E3
:102C200008230593DDE900239342DBD9099B134474
:102C3000039A02F14001029A03F120000432049049
:102C400092F83C00103312F8044C403159F82070CF
:102C5000043211F880CC55F8246047445BF82440D6
:102C60005AF820004644204407EB0C0408EB2040AF
:102C700094F800E106EB0C0484444FEADE0E94F86D
:102C800000419CF800C1E4084FEA9C0C44EACE24C1
:102C900044EA4C1423F8104C11F87F4C2644274486
:102CA000044497F8007196F8000194F80041FE087A
:102CB000C008A40840EAC62040EA441023F80E0CDD
:102CC00092F8390012F8074C59F8207011F87ECCB0
:102CD00055F8246047445BF824405AF820004644E5
:102CE000204407EB0C0408EB204094F800E106EBCD
:102CF0000C0484444FEADE0E94F800419CF800C1B5
:102D0000E4084FEA9C0C44EACE2444EA4C1423F82D
:102D10000C4C11F87D4C26442744044497F800716C
:102D200096F8000194F80041FE08C008A40840EAA3
:102D3000C62040EA441023F80A0C12F8064C92F818
:102D40003A0011F87CCC59F8207055F824605AF8F4
:102D5000200047445BF824404644204407EB0C0421
:102D600008EB204094F800E106EB0C0484444FEAA1
:102D7000DE0E94F800419CF800C1E4084FEA9C0C78
:102D800044EACE2444EA4C1423F8084C11F87B4C56
:102D900026442744044497F8007196F8000194F8FB
:102DA0000041FE08C008A40840EAC62040EA4410DA
:102DB00023F8060C92F83B0012F8054C59F82070E5
:102DC00011F87ACC55F8246047445BF824405AF84F
:102DD00020004644204407EB0C0408EB204094F804
:102DE00000E106EB0C0484444FEADE0E94F8004147
:102DF0009CF800C1E4084FEA9C0C44EACE2444EA63
:102E00004C1423F8044C11F8794C2644274404440C
:102E100097F8007196F8000194F80041FE08C00888
:102E2000A40840EAC62040EA441023F8020C0498A3
:102E300083427FF405AF029B069A08330293039BFB
:102E400008330393009B13440093059B013B0593B8
:102E50007FF4E8AEC6E617EE900A0DB0BDE8F08F3D
:102E6000489A0024C8790024C8850024C881002419
:102E7000C87D00248C5802902DE9F04FB64C89B0E3
:102E8000A4FB03430291D90902EBD31307EE901A76
:102E90009A420693CDE9040280F05881AF4BB04CC2
:102EA0005A6ADFF8C4E207929A6A1B69DFF8BCC26B
:102EB000AC48DFF8BC820392009307E0049BC03368
:102EC0000493DDE90532934200F04081059E079F9F
:102ED000F200013604990596039E01F14003B2FB0E
:102EE000F7F507FB152206FB05F5520002EBC502BC
:102EF00008250195009D9542E0D993F8407008316E
:102F000093F80090083311F8085C50F827A05EF899
:102F1000276025445CF8297058F829902E442F44E6
:102F2000D14496F8006105EB294997F80051F6085D
:102F300099F80071ED08BF0845EAC625029E45EAEA
:102F40004715B55293F8397013F8079C11F8075CD0
:102F500050F827A025445EF827605CF8297058F8DF
:102F600029902E442F44D14496F8006105EB29495D
:102F700097F80051F60899F80071ED08BF0845EA86
:102F8000C626029D46EA471615446E8093F83AA07D
:102F900011F8067C039E27445EF82A90324413F809
:102FA000066CB94450F82AB05CF826A099F8009154
:102FB00058F82660BA444FEAD9095E4407EB264622
:102FC0009AF8007196F800A1FE084FEA9A0A46EABC
:102FD000C92646EA4A16AE8093F83BA013F8056C62
:102FE00011F8057C50F82AB05EF82A9027445CF866
:102FF00026A058F82660B944BA445E4499F8009176
:1030000007EB26469AF800714FEAD90996F800A115
:10301000FE084FEA9A0A46EAC92646EA4A16EE80B0
:1030200093F83CA013F8046C11F8047C50F82AB013
:1030300027445EF82A905CF826A058F82660B94428
:10304000BA445E4499F8009107EB26469AF800715D
:103050004FEAD90996F800A1FE084FEA9A0A46EA13
:10306000C92646EA4A162E8193F83DA011F8037C42
:103070005EF82A90274413F8036C50F82AB0B9443C
:1030800099F800915CF826A058F826604FEAD90913
:10309000BA445E4407EB26469AF8007196F800A100
:1030A000FE084FEA9A0A46EAC92646EA4A166E819F
:1030B00093F83EA013F8026C11F8027C50F82AB085
:1030C00027445EF82A905CF826A058F82660B94498
:1030D000BA445E4499F8009107EB26469AF80071CD
:1030E0004FEAD90996F800A1FE084FEA9A0A46EA83
:1030F000C92646EA4A16AE8193F83FA013F8016C40
:1031000011F8017C5EF82A90274450F82AB05CF848
:1031100026A058F82660B944BA445E4499F8009154
:1031200007EB26469AF800714FEAD90996F800A1F4
:10313000FE084FEA9A0A46EAC92646EA4A16EE818E
:10314000019D013D01957FF4D5AEB7E617EE900ADB
:1031500009B0BDE8F08F00BFABAAAAAA489A002424
:103160008C580290C8810024C8850024C8790024A6
:10317000C87D00242DE9F04F02EB931A9C095245BB
:1031800007EE904A80F08880454BD3E909981E6984
:1031900003E0524500F140007ED0D30004464FF0DA
:1031A000080E0132B3FBF9F509FB153308FB05F5F1
:1031B0005B0003EBC5039E42EBD994F800C0CD1829
:1031C0000834BEF1010E4FEADC074FEA9C0C4FEACF
:1031D000C72B4BEA4C1C47EA0C07CF52434414F868
:1031E00007CC4FEADC074FEA9C0C4FEAC72B4BEAAF
:1031F0004C1C47EA0C076F8014F806CC4FEADC073A
:103200004FEA9C0C4FEAC72B4BEA4C1C47EA0C07D1
:10321000AF8014F805CC4FEADC074FEA9C0C4FEA6C
:10322000C72B4BEA4C1C47EA0C07EF8014F804CC80
:103230004FEADC074FEA9C0C4FEAC72B4BEA4C1CC9
:1032400047EA0C072F8114F803CC4FEADC074FEA5A
:103250009C0C4FEAC72B4BEA4C1C47EA0C076F81CA
:1032600014F802CC4FEADC074FEA9C0C4FEAC72B5C
:103270004BEA4C1C47EA0C07AF8114F801CC4FEA2B
:10328000DC074FEA9C0C4FEAC72B4BEA4C1C47EA81
:103290000C07EF818FD17CE717EE900ABDE8F08F25
:1032A000489A00242DE9F04F1C0A83B002EB132347
:1032B00007EE904A9A42009380F02981964BDFF8FE
:1032C0005CC25C6AD3F828801E69019405E0009B0B
:1032D00000F580709A4200F01A81D300019C0132FF
:1032E0004FF0080EB3FBF4F504FB1534034608FB5E
:1032F00005F5640004EBC504A642E8D993F8C0A024
:103300000F1993F84090BEF1010E03F1080319FB69
:103310000AF9ACFB095913F8085C15FB0AF54FEAEA
:103320005929ACFB05B54FEA49194FEA952549EAF9
:10333000C52593F8789019FB0AF9ACFB09A945EA71
:103340009925ADB20D53444493F8B9A093F8399040
:1033500019FB0AF9ACFB095913F8075C15FB0AF5D0
:103360004FEA5929ACFB05B54FEA49194FEA9525B3
:1033700049EAC52593F8799019FB0AF9ACFB09A92C
:1033800045EA9925ADB27D8093F8BAA093F83A90BA
:1033900019FB0AF9ACFB095913F8065C15FB0AF591
:1033A0004FEA5929ACFB05B54FEA49194FEA952573
:1033B00049EAC52593F87A9019FB0AF9ACFB09A9EB
:1033C00045EA9925ADB2BD8093F8BBA093F83B9038
:1033D00019FB0AF9ACFB095913F8055C15FB0AF552
:1033E0004FEA5929ACFB05B54FEA49194FEA952533
:1033F00049EAC52593F87B9019FB0AF9ACFB09A9AA
:1034000045EA9925ADB2FD8093F8BCA093F83C90B5
:1034100019FB0AF9ACFB095913F8045C15FB0AF512
:103420004FEA5929ACFB05B54FEA49194FEA9525F2
:1034300049EAC52593F87C9019FB0AF9ACFB09A968
:1034400045EA9925ADB23D8193F8BDA093F83D9032
:1034500019FB0AF9ACFB095913F8035C15FB0AF5D3
:103460004FEA5929ACFB05B54FEA49194FEA9525B2
:1034700049EAC52593F87D9019FB0AF9ACFB09A927
:1034800045EA9925ADB27D8193F8BEA013F8029C60
:1034900019FB0AF9ACFB095993F83E5015FB0AF5E4
:1034A0004FEA9929ACFB05B54FEA55254FEA45157A
:1034B00045EAC92593F87E9019FB0AF9ACFB09A9E6
:1034C00045EA9925ADB2BD8193F8BFA093F83F902E
:1034D00019FB0AF9ACFB095913F8015C15FB0AF555
:1034E0004FEA5929ACFB05B54FEA49194FEA952532
:1034F00049EAC52593F87F9019FB0AF9ACFB09A9A5
:1035000045EA9925ADB2FD817FF4F6AEDFE617EE10
:10351000900A03B0BDE8F08F489A00248180808033
:10352000F0B4C36805683E4C102DA3602560D0E957
:10353000017606FB03F0E6604FEA40006760206119
:1035400027D0EDB93748086013F007012BD0C1F13F
:10355000080108256161194461625900DB08A16214
:10356000C4E907550133B6FBF5F105FB116606B159
:10357000013101FB03F30020E3621360F0BC7047EC
:10358000302D19D12848086013F00701DFD161619F
:103590000AE0012F24D0022F11D02448086013F034
:1035A0000701D4D1F3E76561590008256362DB08A0
:1035B000A162C4E90755D6E70120F0BC70471C485A
:1035C000E561086013F00F0122D0C1F11001082558
:1035D000616119442562616259001B09A162C1E75A
:1035E0001448086013F00F0107D16161590063624C
:1035F0001B09A162C4E90755B5E7C1F1100161617A
:103600001944616259001B09A162C4E90755A9E781
:10361000082561615900C4E90853A1621B09A2E7AA
:10362000489A002475310090A5320090792E0090C0
:10363000A52B0090892900902DE9F04FDFF82CC1CF
:10364000A5B0DFF82C814FF40041DFF828E100231A
:103650003D4F4EF62F3B3D4E49F2D04A3C4D44F68D
:103660008B493C4C3C4849F2456202FB03F202F5AF
:10367000004212144EF8042F41F62F5202FB03F2BF
:1036800002F5004212144CF8042F344A02FB03F2F4
:1036900002F50042121447F8042F314A02FB03F2EC
:1036A000013302F50042B3F5807F4FEA224246F82B
:1036B000042F2C4A02FB03B24FEA224244F8042FA3
:1036C000294A02FB03A24FEA224240F8042F4FEAA4
:1036D0002142494448F8042F43F34F0245F8042F90
:1036E000C1D1DFF894E038214FF0000C07E00CF175
:1036F000010C41460EF1200EBCF1100F3ED0BCF182
:10370000070F01F1080872464FF0010094BF002630
:1037100001261FFA88F30024072CA1F1380594BF75
:1037200000270127002F00F00784002E00F00484FA
:1037300001F1400510281580D9D001330134013042
:10374000013102329BB2E7E704A60024C4890024B9
:10375000C46D0024C48D0024C4710024D1D4FFFFA3
:1037600030ABFFFFD194FFFF30EBFFFFC4750024A7
:1037700004AA0024C491002408A40024074B0020BC
:1037800007494FF0800C0493064B074A0393074BFD
:10379000DFF81CE09B4602900CE000BFC8950024B7
:1037A000889C0024C8970024089F0024889A00243D
:1037B00008A1002402980CF101050CF14006002438
:1037C0004308471CADB20020DB000297B6B2089553
:1037D0009BB220320696264603F5807503F5817A62
:1037E00003F203190BF1200BADB220311FFA8AFA54
:1037F00065F30F061FFA89F965F31F463546049EE7
:103800000095344635600CF14105ADB20A950CF1D6
:1038100002051FFA85F80CF14205CDF830801FFA39
:1038200085F80CF10305CDF838801FFA85F80CF106
:103830004305CDF840801FFA85F80CF10405CDF85A
:1038400048801FFA85F80CF14405CDF850801FFA26
:1038500085F80CF10505CDF858801FFA85F80CF1B4
:103860004505CDF860801FFA85F80CF10605CDF806
:1038700068801FFA85F80CF14605CDF870801FFAB4
:1038800085F80CF10705CDF878801FFA85F80CF162
:103890004705CDF880801FFA85F803F5A075CDF8AF
:1038A00088801FFA85F803F5C075CDF814801FFADB
:1038B00085F803F20115CDF81C80ADB265F30F0059
:1038C00065F31F4003F241151FFA85F803F28115D5
:1038D0007060CDF824801FFA85F803F5A17501907A
:1038E000CDF82C8003F247101FFA85F803F5C17557
:1038F00080B2CDF834801FFA85F803F24315CDF875
:103900003C801FFA85F803F28315CDF844801FFA36
:1039100085F803F5A275CDF84C8003F58278AFB237
:1039200003F5C2751FFA88F81597AFB203F2451573
:10393000179703F20517AEB203F28515BFB2ADB209
:10394000199603F5837621901B9503F5A375B6B2FE
:103950000398ADB21D9503F5C375ADB21F9503F283
:10396000071503F28713ADB29BB2239300236AF3CA
:103970000F036AF31F434FF0000A69F30F0AA360B5
:1039800069F31F4A4FF0000968F30F09C4F80CA04F
:1039900068F31F494FF0000867F30F08C4F8109050
:1039A00067F31F48002766F30F07C4F8148066F317
:1039B0001F47002665F30F06A76165F31F4604F154
:1039C000200504950025E6616CF30F05089C6CF357
:1039D0001F450CF1080C056000251FFA8CFC64F3F0
:1039E0000F0564F31F450C9C4560002564F30F052B
:1039F00064F31F45109C8560002564F30F0564F394
:103A00001F45149CC560002564F30F0564F31F4532
:103A1000189C0561002564F30F0564F31F451C9C89
:103A20004561002564F30F0564F31F45209C856103
:103A3000002564F30F0564F31F4500F12004C56100
:103A400000250394059C64F30F0564F31F45099C4E
:103A50004BF8205C002564F30F0564F31F454BF819
:103A60001C5C00250D9C069864F30F0564F31F454C
:103A7000119C4BF8185C002564F30F0564F31F4597
:103A8000159C4BF8145C002564F30F0564F31F4587
:103A9000199C4BF8105C002564F30F0564F31F4577
:103AA0001D9C4BF80C5C002564F30F0564F31F4567
:103AB000219C4BF8085C002564F30F0564F31F4557
:103AC00000244BF8045C002560F30F0560F31F45EC
:103AD0000A9841F8205C002560F30F0560F31F454C
:103AE0000E9841F81C5C002560F30F0560F31F453C
:103AF000129841F8185C002560F30F0560F31F452C
:103B0000169841F8145C002560F30F0560F31F451B
:103B10001A9841F8105C002560F30F0560F31F450B
:103B20001E9841F80C5C002560F30F0560F31F45FB
:103B3000229841F8085C002560F30F0560F31F45EB
:103B4000079841F8045C002560F30F0560F31F45FA
:103B500042F8205C009DCEF800500198CEF81C6021
:103B60000B9E139DCEE901030023179866F30F0304
:103B700066F31F430F9ECEE90587CEE903A942F8FD
